S01F000064636D6F746F725F66756E74696F6E73205F64656C61792E73726563AA
S11300000C9434000C943E000C943E000C943E007E
S11300100C943E000C943E000C943E000C943E0064
S11300200C943E000C943E000C943E000C943E0054
S11300300C943E000C943E000C943E000C943E0044
S11300400C943E000C943E000C943E000C943E0034
S11300500C943E000C943E000C943E000C943E0024
S11300600C943E000C943E0011241FBECFEFD8E048
S1130070DEBFCDBF0E9469000C947D000C9400008B
S113008007C08FE99FE00197F1F700C00000C901A4
S11300909C0121503109892BA1F7089525B12062D3
S11300A025B925B12F7E25B90E944000089525B1B8
S11300B02F7E25B925B12F7D25B90E9440000895D2
S11300C025B1206125B925B12F7D25B90E944000B5
S11300D0089584B1806384B988E59BE10E944E0051
S11300E080ED97E00E94570088E893E10E94600049
S11100F080ED97E00E945700EFCFF894FFCF09
S9030000FC
