:100000000C9434000C943E000C943E000C943E0082
:100010000C943E000C943E000C943E000C943E0068
:100020000C943E000C943E000C943E000C943E0058
:100030000C943E000C943E000C943E000C943E0048
:100040000C943E000C943E000C943E000C943E0038
:100050000C943E000C943E000C943E000C943E0028
:100060000C943E000C943E0011241FBECFEFD8E04C
:10007000DEBFCDBF0E9440000C9480000C940000B5
:1000800084B1806284B984B1806184B98AB18B7F84
:100090008AB94A9B2EC085B1806285B985B18F7EB1
:1000A00085B92FEF83E294EF215080409040E1F733
:1000B00000C0000085B18F7E85B985B18F7D85B97F
:1000C0002FEF83E294EF215080409040E1F700C091
:1000D000000085B1806185B985B18F7D85B92FEF2D
:1000E00083E294EF215080409040E1F700C000008F
:1000F000D0CF85B18F7E85B985B18F7D85B9C9CFC8
:04010000F894FFCFA1
:00000001FF
