S0120000626D703238305F6C63642E73726563A7
S11300000C9434000C9449000C9449000C9449005D
S11300100C9449000C9449000C9449000C94490038
S11300200C9449000C9449000C9449000C94490028
S11300300C9449000C9449000C9449000C94490018
S11300400C9449000C9449000C9449000C94490008
S11300500C9449000C9449000C9449000C944900F8
S11300600C9449000C94490011241FBECFEFD8E032
S1130070DEBFCDBF11E0A0E0B1E0EEE3F2E002C0EC
S113008005900D92AC30B107D9F70E9405010C948C
S11300901D010C94000088B1886088B985E08A95B8
S11300A0F1F7000088B1877F88B987EC90E0019769
S11300B0F1F700C0000008959BB1937C9BB983FFC6
S11300C003C09BB194609BB982FF03C09BB198604D
S11300D09BB981FF03C09BB190619BB980FF03C0B2
S11300E08BB180628BB90E944B000895CF93C82FC7
S11300F0613021F488B1806188B903C088B18F7EF2
S113010088B98C2F82958F700E945C008C2F8F7021
S11301100E945C00CF910895CF93C82F60E00E94A5
S11301207600C150C23030F48FE39FE10197F1F7BC
S113013000C00000CF91089561E00E947600089508
S1130140882311F090E401C090E0862F8F70890F0E
S113015080680E948C000895CF93DF93EC0103C064
S113016021960E949C0088818111FACFDF91CF9162
S1130170089587B1806187B987B1886087B98AB1EA
S11301808C638AB92FEF89EF90E021508040904032
S1130190E1F700C0000088B18F7E88B988B1877FFD
S11301A088B983E00E945C008FE19EE40197F1F737
S11301B000C0000083E00E945C0087E592E00197A4
S11301C0F1F700C0000083E00E945C0087E592E044
S11301D00197F1F700C0000082E00E945C0087E50F
S11301E092E00197F1F700C0000088E20E948C00C1
S11301F088E00E948C0081E00E948C0086E00E94CE
S11302008C008CE00E948C0008950E94B90062E08A
S113021080E00E94A00080E091E00E94AC0066E0D3
S113022081E00E94A0002FEF83ED90E321508040F5
S11102309040E1F700C00000FFCFF894FFCF2C
S10F023E74656D70657261747572650002
S9030000FC
