S00D0000626C696E6B2E7372656307
S11300000C942E000C9438000C9438000C94380096
S11300100C9438000C9438000C9438000C9438007C
S11300200C9438000C9438000C9438000C9438006C
S11300300C9438000C9438000C9438000C9438005C
S11300400C9438000C9438000C9438000C9438004C
S11300500C9438000C9438000C94380011241FBE02
S1130060CFEFD8E0DEBFCDBF0E943A000C9452001F
S11300700C94000080E284B980E285B92FEF83ED0F
S113008090E3215080409040E1F700C0000015B893
S11300902FEF83ED90E3215080409040E1F700C0C2
S10B00A00000EACFF894FFCF41
S9030000FC
