S01700004763634170706C69636174696F6E322E737265635A
S11300000C9434000C943E000C943E000C943E007E
S11300100C943E000C943E000C943E000C943E0064
S11300200C943E000C943E000C943E000C943E0054
S11300300C943E000C943E000C943E000C943E0044
S11300400C943E000C943E000C943E000C943E0034
S11300500C943E000C943E000C943E000C943E0024
S11300600C943E000C943E0011241FBECFEFD8E048
S1130070DEBFCDBF0E9440000C9457000C940000DA
S113008084B180E285B92FEF33ED90E32150304005
S11300909040E1F700C0000085B92FEF33ED80E315
S11300A0215030408040E1F700C00000EACFF894CE
S10500B0FFCF7C
S9030000FC
